{
  "_format": "hh-sol-artifact-1",
  "contractName": "MockSwap",
  "sourceName": "contracts/MockSwap.sol",
  "abi": [
    {
      "inputs": [
        {
          "internalType": "address",
          "name": "_tokenA",
          "type": "address"
        },
        {
          "internalType": "address",
          "name": "_tokenB",
          "type": "address"
        }
      ],
      "stateMutability": "nonpayable",
      "type": "constructor"
    },
    {
      "anonymous": false,
      "inputs": [
        {
          "indexed": true,
          "internalType": "address",
          "name": "previousOwner",
          "type": "address"
        },
        {
          "indexed": true,
          "internalType": "address",
          "name": "newOwner",
          "type": "address"
        }
      ],
      "name": "OwnershipTransferred",
      "type": "event"
    },
    {
      "anonymous": false,
      "inputs": [
        {
          "indexed": true,
          "internalType": "address",
          "name": "user",
          "type": "address"
        },
        {
          "indexed": true,
          "internalType": "address",
          "name": "fromToken",
          "type": "address"
        },
        {
          "indexed": true,
          "internalType": "address",
          "name": "toToken",
          "type": "address"
        },
        {
          "indexed": false,
          "internalType": "uint256",
          "name": "amount",
          "type": "uint256"
        }
      ],
      "name": "Swap",
      "type": "event"
    },
    {
      "inputs": [],
      "name": "owner",
      "outputs": [
        {
          "internalType": "address",
          "name": "",
          "type": "address"
        }
      ],
      "stateMutability": "view",
      "type": "function"
    },
    {
      "inputs": [],
      "name": "renounceOwnership",
      "outputs": [],
      "stateMutability": "nonpayable",
      "type": "function"
    },
    {
      "inputs": [
        {
          "internalType": "uint256",
          "name": "amount",
          "type": "uint256"
        }
      ],
      "name": "swapAToB",
      "outputs": [],
      "stateMutability": "nonpayable",
      "type": "function"
    },
    {
      "inputs": [
        {
          "internalType": "uint256",
          "name": "amount",
          "type": "uint256"
        }
      ],
      "name": "swapBToA",
      "outputs": [],
      "stateMutability": "nonpayable",
      "type": "function"
    },
    {
      "inputs": [],
      "name": "tokenA",
      "outputs": [
        {
          "internalType": "contract IERC20",
          "name": "",
          "type": "address"
        }
      ],
      "stateMutability": "view",
      "type": "function"
    },
    {
      "inputs": [],
      "name": "tokenB",
      "outputs": [
        {
          "internalType": "contract IERC20",
          "name": "",
          "type": "address"
        }
      ],
      "stateMutability": "view",
      "type": "function"
    },
    {
      "inputs": [
        {
          "internalType": "address",
          "name": "newOwner",
          "type": "address"
        }
      ],
      "name": "transferOwnership",
      "outputs": [],
      "stateMutability": "nonpayable",
      "type": "function"
    },
    {
      "inputs": [
        {
          "internalType": "address",
          "name": "token",
          "type": "address"
        },
        {
          "internalType": "uint256",
          "name": "amount",
          "type": "uint256"
        }
      ],
      "name": "withdraw",
      "outputs": [],
      "stateMutability": "nonpayable",
      "type": "function"
    }
  ],
  "bytecode": "0x60806040523480156200001157600080fd5b506040516200114338038062001143833981810160405281019062000037919062000217565b620000576200004b620000e160201b60201c565b620000e960201b60201c565b81600160006101000a81548173ffffffffffffffffffffffffffffffffffffffff021916908373ffffffffffffffffffffffffffffffffffffffff16021790555080600260006101000a81548173ffffffffffffffffffffffffffffffffffffffff021916908373ffffffffffffffffffffffffffffffffffffffff16021790555050506200025e565b600033905090565b60008060009054906101000a900473ffffffffffffffffffffffffffffffffffffffff169050816000806101000a81548173ffffffffffffffffffffffffffffffffffffffff021916908373ffffffffffffffffffffffffffffffffffffffff1602179055508173ffffffffffffffffffffffffffffffffffffffff168173ffffffffffffffffffffffffffffffffffffffff167f8be0079c531659141344cd1fd0a4f28419497f9722a3daafe3b4186f6b6457e060405160405180910390a35050565b600080fd5b600073ffffffffffffffffffffffffffffffffffffffff82169050919050565b6000620001df82620001b2565b9050919050565b620001f181620001d2565b8114620001fd57600080fd5b50565b6000815190506200021181620001e6565b92915050565b60008060408385031215620002315762000230620001ad565b5b6000620002418582860162000200565b9250506020620002548582860162000200565b9150509250929050565b610ed5806200026e6000396000f3fe608060405234801561001057600080fd5b50600436106100885760003560e01c8063859497881161005b57806385949788146100ef5780638da5cb5b1461010b578063f2fde38b14610129578063f3fef3a31461014557610088565b80630fc63d101461008d57806338720f72146100ab5780635f64b55b146100c7578063715018a6146100e5575b600080fd5b610095610161565b6040516100a29190610a05565b60405180910390f35b6100c560048036038101906100c09190610a5b565b610187565b005b6100cf61040a565b6040516100dc9190610a05565b60405180910390f35b6100ed610430565b005b61010960048036038101906101049190610a5b565b610444565b005b6101136106c7565b6040516101209190610aa9565b60405180910390f35b610143600480360381019061013e9190610af0565b6106f0565b005b61015f600480360381019061015a9190610b1d565b610773565b005b600160009054906101000a900473ffffffffffffffffffffffffffffffffffffffff1681565b600160009054906101000a900473ffffffffffffffffffffffffffffffffffffffff1673ffffffffffffffffffffffffffffffffffffffff166323b872dd3330846040518463ffffffff1660e01b81526004016101e693929190610b6c565b6020604051808303816000875af1158015610205573d6000803e3d6000fd5b505050506040513d601f19601f820116820180604052508101906102299190610bdb565b610268576040517f08c379a000000000000000000000000000000000000000000000000000000000815260040161025f90610c65565b60405180910390fd5b600260009054906101000a900473ffffffffffffffffffffffffffffffffffffffff1673ffffffffffffffffffffffffffffffffffffffff1663a9059cbb33836040518363ffffffff1660e01b81526004016102c5929190610c85565b6020604051808303816000875af11580156102e4573d6000803e3d6000fd5b505050506040513d601f19601f820116820180604052508101906103089190610bdb565b610347576040517f08c379a000000000000000000000000000000000000000000000000000000000815260040161033e90610cfa565b60405180910390fd5b600260009054906101000a900473ffffffffffffffffffffffffffffffffffffffff1673ffffffffffffffffffffffffffffffffffffffff16600160009054906101000a900473ffffffffffffffffffffffffffffffffffffffff1673ffffffffffffffffffffffffffffffffffffffff163373ffffffffffffffffffffffffffffffffffffffff167fffebebfb273923089a3ed6bac0fd4686ac740307859becadeb82f998e30db614846040516103ff9190610d1a565b60405180910390a450565b600260009054906101000a900473ffffffffffffffffffffffffffffffffffffffff1681565b61043861083c565b61044260006108ba565b565b600260009054906101000a900473ffffffffffffffffffffffffffffffffffffffff1673ffffffffffffffffffffffffffffffffffffffff166323b872dd3330846040518463ffffffff1660e01b81526004016104a393929190610b6c565b6020604051808303816000875af11580156104c2573d6000803e3d6000fd5b505050506040513d601f19601f820116820180604052508101906104e69190610bdb565b610525576040517f08c379a000000000000000000000000000000000000000000000000000000000815260040161051c90610cfa565b60405180910390fd5b600160009054906101000a900473ffffffffffffffffffffffffffffffffffffffff1673ffffffffffffffffffffffffffffffffffffffff1663a9059cbb33836040518363ffffffff1660e01b8152600401610582929190610c85565b6020604051808303816000875af11580156105a1573d6000803e3d6000fd5b505050506040513d601f19601f820116820180604052508101906105c59190610bdb565b610604576040517f08c379a00000000000000000000000000000000000000000000000000000000081526004016105fb90610c65565b60405180910390fd5b600160009054906101000a900473ffffffffffffffffffffffffffffffffffffffff1673ffffffffffffffffffffffffffffffffffffffff16600260009054906101000a900473ffffffffffffffffffffffffffffffffffffffff1673ffffffffffffffffffffffffffffffffffffffff163373ffffffffffffffffffffffffffffffffffffffff167fffebebfb273923089a3ed6bac0fd4686ac740307859becadeb82f998e30db614846040516106bc9190610d1a565b60405180910390a450565b60008060009054906101000a900473ffffffffffffffffffffffffffffffffffffffff16905090565b6106f861083c565b600073ffffffffffffffffffffffffffffffffffffffff168173ffffffffffffffffffffffffffffffffffffffff1603610767576040517f08c379a000000000000000000000000000000000000000000000000000000000815260040161075e90610da7565b60405180910390fd5b610770816108ba565b50565b61077b61083c565b8173ffffffffffffffffffffffffffffffffffffffff1663a9059cbb33836040518363ffffffff1660e01b81526004016107b6929190610c85565b6020604051808303816000875af11580156107d5573d6000803e3d6000fd5b505050506040513d601f19601f820116820180604052508101906107f99190610bdb565b610838576040517f08c379a000000000000000000000000000000000000000000000000000000000815260040161082f90610e13565b60405180910390fd5b5050565b61084461097e565b73ffffffffffffffffffffffffffffffffffffffff166108626106c7565b73ffffffffffffffffffffffffffffffffffffffff16146108b8576040517f08c379a00000000000000000000000000000000000000000000000000000000081526004016108af90610e7f565b60405180910390fd5b565b60008060009054906101000a900473ffffffffffffffffffffffffffffffffffffffff169050816000806101000a81548173ffffffffffffffffffffffffffffffffffffffff021916908373ffffffffffffffffffffffffffffffffffffffff1602179055508173ffffffffffffffffffffffffffffffffffffffff168173ffffffffffffffffffffffffffffffffffffffff167f8be0079c531659141344cd1fd0a4f28419497f9722a3daafe3b4186f6b6457e060405160405180910390a35050565b600033905090565b600073ffffffffffffffffffffffffffffffffffffffff82169050919050565b6000819050919050565b60006109cb6109c66109c184610986565b6109a6565b610986565b9050919050565b60006109dd826109b0565b9050919050565b60006109ef826109d2565b9050919050565b6109ff816109e4565b82525050565b6000602082019050610a1a60008301846109f6565b92915050565b600080fd5b6000819050919050565b610a3881610a25565b8114610a4357600080fd5b50565b600081359050610a5581610a2f565b92915050565b600060208284031215610a7157610a70610a20565b5b6000610a7f84828501610a46565b91505092915050565b6000610a9382610986565b9050919050565b610aa381610a88565b82525050565b6000602082019050610abe6000830184610a9a565b92915050565b610acd81610a88565b8114610ad857600080fd5b50565b600081359050610aea81610ac4565b92915050565b600060208284031215610b0657610b05610a20565b5b6000610b1484828501610adb565b91505092915050565b60008060408385031215610b3457610b33610a20565b5b6000610b4285828601610adb565b9250506020610b5385828601610a46565b9150509250929050565b610b6681610a25565b82525050565b6000606082019050610b816000830186610a9a565b610b8e6020830185610a9a565b610b9b6040830184610b5d565b949350505050565b60008115159050919050565b610bb881610ba3565b8114610bc357600080fd5b50565b600081519050610bd581610baf565b92915050565b600060208284031215610bf157610bf0610a20565b5b6000610bff84828501610bc6565b91505092915050565b600082825260208201905092915050565b7f5472616e73666572206f6620746f6b656e41206661696c656400000000000000600082015250565b6000610c4f601983610c08565b9150610c5a82610c19565b602082019050919050565b60006020820190508181036000830152610c7e81610c42565b9050919050565b6000604082019050610c9a6000830185610a9a565b610ca76020830184610b5d565b9392505050565b7f5472616e73666572206f6620746f6b656e42206661696c656400000000000000600082015250565b6000610ce4601983610c08565b9150610cef82610cae565b602082019050919050565b60006020820190508181036000830152610d1381610cd7565b9050919050565b6000602082019050610d2f6000830184610b5d565b92915050565b7f4f776e61626c653a206e6577206f776e657220697320746865207a65726f206160008201527f6464726573730000000000000000000000000000000000000000000000000000602082015250565b6000610d91602683610c08565b9150610d9c82610d35565b604082019050919050565b60006020820190508181036000830152610dc081610d84565b9050919050565b7f5769746864726177206661696c65640000000000000000000000000000000000600082015250565b6000610dfd600f83610c08565b9150610e0882610dc7565b602082019050919050565b60006020820190508181036000830152610e2c81610df0565b9050919050565b7f4f776e61626c653a2063616c6c6572206973206e6f7420746865206f776e6572600082015250565b6000610e69602083610c08565b9150610e7482610e33565b602082019050919050565b60006020820190508181036000830152610e9881610e5c565b905091905056fea2646970667358221220bbfe2caaf89d9a1a6398a108f7bb0f45261410ab81077e37ae2d4ee48286538f64736f6c63430008130033",
  "linkReferences": {},
  "deployedLinkReferences": {}
}